:020000040800F2
:1000000010A6002045010008AB210008C91C00080B
:10001000A9210008B1010008E9270008000000003C
:100020000000000000000000000000000D23000898
:100030002702000800000000AD2100080F2300087F
:100040005F0100085F0100085F0100082D22000821
:100050005F0100085F0100085F010008310200082D
:100060005F0100085F0100085F010008B50100089A
:10007000C1010008CD0100085F010008D901000896
:100080005F0100085F0100085F0100085F010008D0
:100090005F0100085F0100085F0100085F010008C0
:1000A0005F0100085F0100085F0100085F010008B0
:1000B0005F0100085F0100085F0100085F010008A0
:1000C0005F0100085F0100085F0100085F01000890
:1000D0005F0100085F0100085F0100085F01000880
:1000E000290200085F0100085F0100085F010008A5
:1000F0005F0100085F0100085F0100085F01000860
:100100005F0100085F0100085F0100085F0100084F
:100110005F0100085F0100085F0100085F0100083F
:10012000E50100085F0100085F010008F101000817
:10013000DFF80CD000F02AF800480047412E0008F4
:1001400010A600200648804706480047FEE7FEE765
:10015000FEE7FEE7FEE7FEE7FEE7FEE7FEE7FEE777
:100160009323000831010008D2B201E000F8012B0E
:10017000491EFBD270470022F6E710B513460A4627
:1001800004461946FFF7F0FF204610BD064C074D08
:1001900006E0E06840F0010394E807009847103457
:1001A000AC42F6D3FFF7C8FF0C2F00082C2F000835
:1001B000FEE70000014800F0D9B80000100300205D
:1001C000014800F0D3B8000044020020014800F0CC
:1001D000CDB80000CC020020014800F0C7B80000F4
:1001E00088020020014800F0C1B8000098030020F8
:1001F000014800F0BBB800005403002030B590F86F
:1002000040500124AC40C56B6C6004686360436877
:10021000102B036803D099600068C26030BD9A60FB
:100220000068C16030BD70474FF4005000F068BAFC
:10023000022000F065BA72B6FEE700002DE9F05F1B
:1002400090F821100024022903D0042181630124A5
:1002500085E001680A6822F00E020A6001680A68F7
:1002600022F001020A603F4E3E4FB215DFF8F4C0A3
:10027000DFF8F090DFF8ECA0DFF8E8B0DFF8E4E0BA
:100280000168783F13011502ACF1640CA9F1500923
:10029000AAF13C0AABF1280BAEF1140E4FF4801812
:1002A000B14227D9B9420ED0614512D049451DD07F
:1002B000514518D0594518D0714501D1424615E035
:1002C000294EB14201D1012210E0274E1436B1422D
:1002D00001D110220AE0244E2836B14206D0224A2B
:1002E0003C32914201D11A4600E02A461E49091FBC
:1002F0000A602BE0B94213D0614517D0494522D09E
:1003000051451DD059451DD0714501D142461AE0D5
:10031000B14202D14FF0807215E0134EB14201D1CB
:10032000012210E0104E1436B14201D110220AE031
:100330000D4E2836B14206D00B4A3C32914201D1D3
:100340001A4600E02A46074980394A60012180F8B0
:100350002110002180F82010416B01B18847204610
:10036000BDE8F09F80000240080402402DE9F05FE4
:10037000C16B0A6801680B68046C4FF0040808FA46
:1003800004F8844D844E854FDFF814C2DFF81492D0
:10039000DFF814A2DFF814B2DFF814E218EA020F53
:1003A00065D05FEA437862D50A68920603D40A688A
:1003B00022F004020A60DFF8F0814FF480620168E5
:1003C00008F1140813011402414524D9A9420DD0A3
:1003D000B1420FD0B9421AD0614515D0494515D068
:1003E000514501D1120312E0594501D104220EE01A
:1003F000714501D140220AE06D4D1435A94206D065
:100400006B4A2832914201D11A4600E022466749E0
:10041000091F0A6029E0A94213D0B14215D0B942A0
:1004200020D061451BD049451BD0514502D14FF426
:10043000800217E0414502D14FF0806212E0594539
:1004400001D104220EE0714501D140220AE0584D4D
:100450001435A94206D0564A2832914201D11A4693
:1004600000E022464B4908394A60C16A71E04FF00A
:10047000020808FA04F818EA020F70D05FEA8378DD
:100480006DD50A68920606D40A6822F00A020A604C
:10049000012180F82110DFF810814FF4007201680B
:1004A00008F1140813011402414524D9A9420DD0C2
:1004B000B1420FD0B9421AD0614515D0494515D087
:1004C000514501D1120312E0594501D102220EE03B
:1004D000714501D120220AE0354D1435A94206D0DC
:1004E000334A2832914201D11A4600E022462F4970
:1004F000091F0A6029E0A94213D0B14215D0B942C0
:1005000020D061451BD049451BD0514502D14FF445
:10051000001217E0414502D14FF0007212E0594538
:1005200001D102220EE0714501D120220AE0204DC6
:100530001435A94206D01E4A2832914201D11A46EA
:1005400000E02246134908394A60002180F8201053
:10055000816A00291CD0BDE8F05F0847FFE7082545
:10056000A540154214D01A0712D50A6822F00E02CF
:100570000A6090F84020C36B012101FA02F25A6030
:10058000816380F82110002180F82010016BE0E7E2
:10059000BDE8F09F080002401C000240300002400D
:1005A00044000240580002406C000240080402402F
:1005B0001C04024030B560B11A4B026814219A4203
:1005C00009D2194B1344B3FBF1F1890001641749B7
:1005D0000AE0012030BD134B5B421344B3FBF1F141
:1005E000890001640F490839C163022180F8211094
:1005F000136843F6F0718B43F0E901142143D0E90D
:1006000002452C4321430469214344692143846901
:100610002143194311600021416301224277017790
:10062000084630BD08040240F8FFFDBF000002404C
:1006300070B5044690F82000002501280CD0012058
:1006400084F8200094F821600020012E06D084F860
:1006500020000225284670BD022070BD022684F8C5
:100660002160A0632068066826F001060660204627
:10067000FFF7C4FDE06A00282068016802D041F05D
:100680000E0106E021F0040101602068016841F0DC
:100690000A0101602068016841F001010160D9E7A9
:1006A00070B5044600F03AF90546601C02D00448D3
:1006B0000078044400F032F9401BA042FAD370BD28
:1006C0007000002010B504464FF49670FFF7E8FF65
:1006D00000220A49B4F5005F08D0022C05D1C86891
:1006E000401CC860022800DDCA6010BD0878401CAC
:1006F000C0B208700328F8D90A7010BD00000020AD
:10070000044910B50A68024202D00860FFF7DAFF18
:1007100010BD0000140401402DE9F84FDFF8C89126
:10072000002409F1040A0AF1040B23460F270BF1F8
:10073000040ED1E00125A54006EA0502AA4276D1C1
:10074000DFF8A8C14E68A6EB0C0866452BD00DDC7F
:10075000032E34D005DC36B3012E19D0022E2FD152
:100760001BE0112E16D0122E2AD119E0B8F5881FE1
:1007700019D006DCB8F5803F15D0B8F5801F1FD121
:1007800011E0B8F5001F0ED0B8F5041F18D10AE02B
:10079000CB6815E0CB681B1D12E0CB6808330FE077
:1007A000CB680C330CE08B682BB1012B4FF00803A6
:1007B00003D0456104E0042302E0056100E000236A
:1007C000FF2A01D8064601E000F104064FEA84053D
:1007D00001D9A5F12005D6F8008007FA05FC28EA22
:1007E0000C0803FA05F548EA0508C6F800804D68CC
:1007F000ED0070D53E4DAE6946F00106AE61AD69C3
:1008000024F0030605F0010500953A4D06EB050CB2
:10081000DCF80850A607360F07FA06F825EA08059F
:10082000DFF8D480404503D14FF0000825E052E0C6
:10083000DFF8C880404502D14FF001081DE0DFF825
:10084000C080404502D14FF0020816E0DFF8B480C6
:10085000404502D14FF003080FE0DFF8AC8040457F
:1008600002D14FF0040808E0DFF8A080404502D133
:100870004FF0050801E04FF0060808FA06F848EACC
:100880000508CCF808804D68D9F80060ED034D46A6
:1008900001D5164300E096432E604D68DAF80060FB
:1008A000AD03554601D5164300E096432E604D68D2
:1008B000DBF80060ED025D4601D5164300E096438B
:1008C0002E604D68DEF80060AD02754601D5164316
:1008D00000E096432E60641C0A681646E2407FF4EE
:1008E00029AFBDE8F88F000000040140000011109E
:1008F000001002400000014000080140000C0140CF
:10090000001001400014014000180140001C01408B
:100910008068084000D001207047000001488068CE
:10092000704700007000002002488168027811447E
:100930008160704770000020074810B5016841F0E1
:1009400010010160032000F075F8002000F006F8A7
:1009500000F024F8002010BD0020024070B50D4DBD
:1009600004464FF47A712878B1FBF0F00A4909681F
:10097000B1FBF0F000F02DFD48B9102C07D2002299
:100980002146501E00F036F800206C6070BD01203A
:1009900070BD0000700000207C0000200C4808B5ED
:1009A000816941F001018161816901F001010091DA
:1009B000C16941F08051C161C06900F08050009070
:1009C0000448416821F0E06141F00071416008BDD8
:1009D0000010024000000140002809DB00F01F0267
:1009E000012191404009800000F1E020C0F8001191
:1009F00070470000F0B40E4B1B680C46C3F3022393
:100A0000C3F10705042D00D90425191D072901D2BA
:100A1000002300E0DB1E012606FA05F1491E2140F5
:100A200099409E40761E16403143F0BC01F034BF21
:100A30000CED00E0064900F0070208684FF6FF03DE
:100A4000184040EA0220034A104308607047000043
:100A50000CED00E00000FA05014901200862704732
:100A600000000E4210B52CA401461DCC86B08DE8C6
:100A70001D002DA02D4C00680490002004292FD0CB
:100A80000BDC01292FD0022928D100F061F961681F
:100A9000C1F38131491C49001EE0082920D01029EA
:100AA0001CD161682268D20118D5C1F38342C90301
:100AB0001DF8020009D5616804AAC1F34041515CE8
:100AC0001B4AB2FBF1F1484301E01A49484361680F
:100AD000490203D440000321B0FBF1F006B010BD81
:100AE00000F046F9FAE7226AC2F30121012903D195
:100AF000920701D5C803F1E7022905D1626A92077E
:100B000002D549F64040E9E70329E7D12168890386
:100B1000E4D54FF22440E1E7020304050607080983
:100B20000A0B0C0D0E0F1010010200000010024005
:100B300000127A0000093D002DE9F84305460078CF
:100B4000354CC00754D0E0690026C00008D4E069E5
:100B500040F08050E061E069012600F08050009094
:100B60002E480168C90512D40168804641F480719D
:100B70000160FFF7D3FE074605E000BFFFF7CEFE9A
:100B8000C01B642823D8D8F80000C005F6D5206A19
:100B900010F4407021D0A98801F4407181421CD02A
:100BA000206A1F49012220F440700A6000220A6076
:100BB0002062C00711D0FFF7B1FE074641F2883826
:100BC00008E000BFFFF7AAFEC11B414502D9032080
:100BD000BDE8F883206A8007F4D5206A696820F4AC
:100BE0004070084320621EB1E06920F08050E0614F
:100BF0002878800705D56068A96820F4404008433C
:100C000060602878C00605D56068696920F48000B6
:100C1000084360600020DBE70010024000700040E5
:100C2000400442422DE9F0470F46050061D0434E93
:100C3000306800F00700B84209D2306820F00700A1
:100C400038433060306800F00700B84251D128685E
:100C50003B4C810712D5400703D5606840F4E06043
:100C600060602878000703D5606840F460506060D9
:100C70006068A96820F0F000084360602878C00729
:100C800028D06868012810D02168022810D0890770
:100C900000292EDA616821F0030101436160FFF74A
:100CA0003DFE804641F288390DE021688903EFE777
:100CB0008901EDE7FFF732FEA0EB0801494502D9B3
:100CC0000320BDE8F0876068696800F00C00B0EBB5
:100CD000810FEFD1306800F00700B8420BD93068BF
:100CE00020F0070038433060306800F00700B84259
:100CF00001D00120E5E72878400705D56068E9685C
:100D000020F4E060084360602878000706D560683A
:100D1000296920F4605040EAC100606000F028F8C2
:100D20006168084AC1F30311515CC8400649086074
:100D300006480068FFF712FE0020C2E700200240CC
:100D400000100240F42E00087C00002074000020F7
:100D50000448054900684968044AC1F3C221515C4E
:100D6000C84070477C00002000100240042F00089B
:100D700012A185B00FC98DE80F0014A0144A0068B5
:100D800004905168134801F00C03042B10D0082B79
:100D90000ED1C1F38343C9031DF803000AD551687E
:100DA00004AAC1F34041515C0A4A5043B0FBF1F040
:100DB00005B0704708494843FAE7000002030405FC
:100DC000060708090A0B0C0D0E0F10100102000097
:100DD0000010024000127A0000093D002DE9F84F92
:100DE000040070D02078C04DC00749D06868C0F3B7
:100DF0008100012807D06868C0F38100022809D16A
:100E00006868C00306D52868800339D56068002863
:100E1000E7D035E06068B0F5803F0BD010B1B0F599
:100E2000A02F11D0286820F480302860286820F492
:100E3000802002E0286840F480302860606890B12B
:100E4000FFF76CFD06460AE0286840F48020286021
:100E5000F0E700BFFFF762FD801B642873D82868A5
:100E60008003F7D50CE0FFF759FD064605E000BF0B
:100E7000FFF754FD801B6428F0D828688003F7D45E
:100E800020789A4E80074FF001094FF0000839D5BD
:100E9000686810F00C0F07D06868C0F38100022862
:100EA00009D16868C00306D42868800714D5206972
:100EB000012808D110E02069B0B1C6F80090FFF712
:100EC0002DFD074605E00AE1FFF728FDC01B0228BB
:100ED000C4D828688007F7D52868616920F0F80031
:100EE00040EAC10028600DE0C6F80080FFF716FD5B
:100EF000074604E0FFF712FDC01B022823D828682C
:100F00008007F7D4207800072CD57948A169D9B19A
:100F1000C0F80090FFF702FD074604E0FFF7FEFC73
:100F2000C01B02280FD8686A8007F7D571484FF4B4
:100F3000FA510068B0FBF1F0009000BF0098411E2C
:100F40000091FAD20EE080E0C0F80080FFF7E6FCE6
:100F5000074604E0FFF7E2FCC01B022875D8686A68
:100F60008007F7D42078400760D5E8690027C000E3
:100F700008D4E86940F08050E861E869012700F092
:100F8000805000905C480168C90513D4016883460D
:100F900041F480710160FFF7C1FC824606E000BFAA
:100FA000FFF7BCFCA0EB0A0064284ED8DBF8000079
:100FB000C005F5D5E06801280AD008B1052813D08E
:100FC000286A20F001002862286A20F0040002E06C
:100FD000286A40F001002862E06841F2883B98B13D
:100FE000FFF79CFC82460BE0286A40F00400286270
:100FF000EEE700BFFFF792FCA0EB0A0159455AD873
:10100000286A8007F6D50CE0FFF788FC824605E0E9
:10101000FFF784FCA0EB0A0159454CD8286A8007E9
:10102000F6D41FB1E86920F08050E861E06988B328
:101030006968C1F38101022944D00228C6F86080A2
:1010400004D0FFF76BFC044638E034E0FFF766FCA1
:10105000074604E0FFF762FCC01B02282BD8286873
:101060008001F7D4206AB0F5803F05D16868A16897
:1010700020F4003008436860D4E908010843696837
:1010800021F4741108436860C6F86090FFF746FCCD
:10109000044606E025E000BFFFF740FC001B0228E5
:1010A00009D828688001F7D51BE000BFFFF736FCA0
:1010B000001B022802D90320BDE8F88F28688001B0
:1010C000F4D40EE00128F7D06868226A00F4803179
:1010D000914204D1616A00F47010884201D001206D
:1010E000EAE70020E8E7000000100240000042426A
:1010F000800442427C00002000700040704770472E
:1011000010B5044600680168C90717D04168C907CF
:1011100014D040684007204607D5FFF7F0FF21684C
:101120006FF004004860042002E0FFF7E7FF0120B1
:1011300060742068416821F00101416010BD000029
:1011400070B5040003D0607C002610B105E00120DA
:1011500070BD2674204600F043F8022060742046DB
:1011600000F01AF9042578BB204601F029F858BB95
:101170002068416821F007014160A06820B117484C
:10118000016821F0010101601448001F0168A26894
:1011900021F46071114301606068411C04D1012099
:1011A000FFF760FC80B1401E21688A6822F00F02C0
:1011B00042EA10428A602168CA6860F30F02CA607E
:1011C000204601F017F808B16574C0E7E673012006
:1011D0006073A0736074002070BD0000306C00402C
:1011E00008B500680D49884217D1FFF735FC0C4857
:1011F000C16941F00061C161C0690A4900F0006045
:10120000009001200860002211460320FFF7F2FB46
:10121000BDE808400320FFF7DFBB08BD0028004001
:10122000001002403C0442422DE9F0410D4604000A
:101230003BD0C5B3207C01283AD04FF0010884F898
:10124000108002206074E87872B300F0B0FFE073A1
:10125000687800F0ACFF6073A87800F0A8FFA07376
:10126000C2B2617BE07B00F0FEFF20732870204655
:1012700000F0E9FF4FF46161B0FBF1F1002518299E
:101280002DD91822B1FBF2F1A1EB011101EB4101C3
:10129000C1EB011100EBC1163146204601F022F8E6
:1012A0000427C8B90BE000E004E00120BDE8F081AC
:1012B0000220FBE7E07368786073A878CFE72046E8
:1012C00000F0BAFF411C0AD0B04208D206490144DE
:1012D000204600F0F3FF10B167742574E5E784F849
:1012E000118025740020E1E7805101002DE9F041D3
:1012F0000D46040024D01DB3207C012823D04FF0DC
:10130000010884F81080022060742878EAB100F0A7
:101310004EFF4FF4616100FB01F6687800F047FF73
:10132000C0EB001006EB8006A87800F040FF3518EF
:101330002946204600F0D6FF0026042710BB0FE008
:101340000120BDE8F0810220FBE74FF461614843D2
:101350006978C1EB011100EB8100A9784518E7E736
:101360002068416821F005014160204600F064FFDB
:10137000411C0AD0A84208D206490144204600F088
:101380009DFF10B167742674DAE784F81180267423
:101390000020D6E78051010070B504000AD0206813
:1013A000416821F008014160FFF7B8FA05464FF4A3
:1013B0007A7608E0012070BDFFF7B0FA401BB0421A
:1013C00001D9032070BD206840680007F4D50020D3
:1013D00070BD10B5401EB0F1807F01D3012010BD5B
:1013E0004FF0E02460610F21601701F055FA0020F2
:1013F000A06107202061002010BD10B590F83C20AE
:10140000012A22D0012280F83C20CA688C6822F48C
:10141000407222434C6822F4806222430C6822F41A
:10142000006222430C6922F4805222434C6922F468
:1014300000522243C969002322F480420A43016812
:101440004A6480F83C30002010BD022010BD00002E
:1014500070B590F83C20012A2CD0012480F83C4043
:10146000022280F83D2003685A689D6822F07006C9
:101470000A6832435A60104B02689A420ED00F4BF2
:101480009A420BD0B2F1804F08D00D4B9A4205D052
:101490000C4B9A4202D00C4B9A4204D1496825F079
:1014A00080031943916080F83D40002180F83C1092
:1014B000084670BD022070BD002C01400034014080
:1014C0000004004000080040000C004010B504007B
:1014D00003D094F83D0010B107E0012010BD0020BA
:1014E00084F83C00204600F01FF8022084F83D00FC
:1014F000211D206800F04EFF012084F8460084F88A
:101500003E0084F83F0084F8400084F8410084F8ED
:10151000420084F8430084F8440084F8450084F8CD
:101520003D00002010BD000038B505460068124996
:10153000884220D11148C16941F00201C161C069EE
:10154000104C00F0020000900D48206010206060F8
:1015500000208021C4E90201890021618900C4E9D9
:101560000510E0612046FFF725F808B1FEF763FE9D
:101570002C632C62656238BD0004004000100240FC
:1015800030000240CC02002070B5044690F83C00C8
:10159000012817D0012584F83C50022084F83D0032
:1015A0002068826822F0770222F47F428260086815
:1015B000502830D00DDC20284DD005DC98B3102801
:1015C0003BD148E0022070BD302844D0402834D1BF
:1015D00039E0602828D0702806D0B0F5805F2CD084
:1015E000B0F5005F29D10AE0CB68D1E9012120687C
:1015F00000F098FF2068816841F0770109E0CB682E
:10160000D1E90121206800F08DFF2068816841F454
:101610008041816011E0CA684968206801F056F88D
:101620005021206807E016E0CA684968206801F088
:101630005EF86021206800F07FFF84F83D500020B4
:1016400084F83C0070BDCA684968206801F03EF823
:1016500040212068EFE7226801461046EBE770471B
:1016600070B586B0002100910191029103913E492D
:101670003C4C03688D1502223C48A3420BD18B6978
:1016800043F004038B618969CDE9005201F0040144
:10169000CDE9032152E0B3F1804F10D0344E354CE8
:1016A000B3422AD1886940F00800886188690092B5
:1016B00000F008000192CDE9032069462DE08B6916
:1016C00043F004038B618969039201F004010491E2
:1016D0004FF40041CDE900126946FFF71DF8264896
:1016E000416821F4407141F0E06141F48071416052
:1016F00006B070BDFFF710F8FAE7204EB3420ED1E6
:10170000886940F0080088618869694600F008002F
:1017100004904020CDE9000203922046EAE7184CED
:10172000A3420DD18B6943F004038B618969039255
:1017300001F0040104910121CDE900126946D9E7C5
:1017400010488342D4D1886940F0100088618869CC
:10175000CDE9005200F01000CDE9032069460A48A7
:10176000C8E70000002C01400010024000080140C2
:1017700000040040000C014000000140000800404F
:10178000000C0040003401400010014070B50446D8
:1017900090F83C000D4601280AD0012084F83C0056
:1017A00042B1042A18D0082A2AD00C2A4DD139E097
:1017B000022070BD206800F0C7FE2068816941F0FA
:1017C000080181612068816921F00401816120683C
:1017D00081692A69114311E0206800F0E5FE206864
:1017E000816941F4006181612068816921F480612F
:1017F0008161206881692A6941EA0221816124E0CE
:10180000206800F007FF2068C16941F00801C1614C
:101810002068C16921F00401C1612068C1692A6999
:10182000114311E0206800F029FF2068C16941F4EC
:101830000061C1612068C16921F48061C1612068D3
:10184000C1692A6941EA0221C161002084F83C0093
:1018500070BD10B5040003D094F83D0010B107E04E
:10186000012010BD002084F83C00204600F01EF846
:10187000022084F83D00211D206800F08BFD01202E
:1018800084F8460084F83E0084F83F0084F8400065
:1018900084F8410084F8420084F8430084F844004E
:1018A00084F8450084F83D00002010BDF8B51021F3
:1018B0000446DFF81CC107680020464D80224B011A
:1018C000CE01674513D1AF6947F40067AF61AD69D9
:1018D000414F05F400650095404D05F1080C8CE87A
:1018E0004D00A861E861284645E065626DE0B7F10A
:1018F000804F17D0DFF8E8C0674527D1EF6947F080
:101900000407EF61ED69344F05F004050095334D90
:10191000143FCC3505F1080C8CE84D00A861E86156
:10192000284628E0EF6947F00107EF61ED692A4F8B
:1019300005F001050095294D3C37443505F1080CAB
:101940008CE84D00A861E861284614E0DFF894C0F7
:10195000674519D1EF6947F00807EF61ED69224F3C
:1019600005F008050095214D05F1080C8CE84D00A7
:10197000A861E8612846C5E90071FEF71BFE002852
:10198000B3D0FEF758FCB0E7DFF864C067451DD15F
:10199000AF6947F40057AF61AD69134F05F40055C7
:1019A0000095124D503F443505F1080C8CE84D0070
:1019B000A861E861C5E900712846FEF7FBFD08B1A2
:1019C000FEF739FCE5626C6225626C62F8BD0000CE
:1019D000002C0140001002401C0002404402002084
:1019E00000080040000C004058040240540300204E
:1019F000003401402DE9F041194F002406462546E8
:101A0000A7F1080857F82400B0420FD118F80420B5
:101A1000DAB1042A1CD00068082A1CD0C0F8405053
:101A200018F8041057F8240000F0EEF8641CE4B233
:101A3000052CE7D30B4886420FD10068C563BDE88B
:101A4000F0410821074800F0DFB800684563E7E788
:101A500000688563E4E7C563E2E7BDE8F081000064
:101A60001C000020FC010020704700002DE9F0411F
:101A700017460D0004460CD0042D11D0082D16D0A9
:101A800094F84100022819D094F84100012818D098
:101A9000A2E094F83E00022810D094F83E00F5E74A
:101AA00094F83F00022809D094F83F00EEE794F83C
:101AB0004000022802D094F84000E7E70220BDE889
:101AC000F0810FB9002B5BD14749484E484A0220AC
:101AD00045B1042D16D0082D24D084F841000C2DDA
:101AE0003AD16CE084F83E00606A8162606A3946EF
:101AF000C662606A02632268606A3432FEF798FD4B
:101B0000F0BB1FE084F83F00A06A8162A06A3946FA
:101B1000C662A06A02632268A06A3832FEF788FDB6
:101B200070BB14E084F84000E06A8162E06A3946E4
:101B3000C662E06A02632268E06A3C32FEF778FD22
:101B4000F0B937E02068C16841F4007103E0206813
:101B5000C16841F48061C16001222946206800F01B
:101B60005FFC24492068244A884201D0904203D176
:101B7000436C43F400434364206888420FD000E084
:101B80002AE090420BD0B0F1804F08D01B49884228
:101B900005D01B49884202D01A49884204D1816885
:101BA00001F00701062903D0016841F0010101603D
:101BB000002084E72068C16841F40061CBE7206B16
:101BC0008162206B3946C662206B02632268206BFB
:101BD0004032FEF72DFD08B1012070E72068C16892
:101BE00041F48051B7E700003B2400089924000825
:101BF000D1240008002C01400034014000040040C2
:101C000000080040000C004070B5044600680D005C
:101C100006D0042D0AD0082D3DD00C2D0DD140E06A
:101C2000C16821F40071C160606A04E0C16821F4F8
:101C30008061C160A06AFEF701FB0022294620688E
:101C400000F0EEFB1E4B41F2111120688A10984201
:101C500002D01C4B984209D1036A0B4206D1036A99
:101C6000134203D1436C23F4004343642068036AA6
:101C70000B4206D1016A114203D1016821F0010132
:101C8000016001209DB1042D14D0082D15D084F8D9
:101C90004100002070BDC16821F40061C160E06AAC
:101CA000C9E7C16821F48051C160206BC3E784F8A3
:101CB0003E00EEE784F83F00EBE784F84000E8E7F9
:101CC000002C014000340140FEE710B5024640F20E
:101CD00091142146EF2000F047FE2146BDE8104058
:101CE0004FF40002EF2000F017BE0000214808B5B5
:101CF000416941F001014161416901F00101009137
:101D0000416941F0020141614069002200F0020096
:101D1000009005210B20FEF76DFE0B20FEF75CFE08
:101D2000002205210C20FEF765FE0C20FEF754FE74
:101D3000002205210D20FEF75DFE0D20FEF74CFE72
:101D4000002205210F20FEF755FE0F20FEF744FE6E
:101D5000002205213820FEF74DFE3820FEF73CFE1C
:101D6000002206213B20FEF745FEBDE808403B204F
:101D7000FEF732BE0010024030B585B0284800247E
:101D80000394816941F010018161816901F01001C2
:101D90000491816941F020018161816901F0200194
:101DA0000491816941F004018161816901F00401BC
:101DB0000491816941F00801816180691A4D00F048
:101DC0000800049042F202000090164801900120A1
:101DD000029069462846FEF79FFCF020CDE90004FA
:101DE000694612480294FEF797FC1020CDE90004E2
:101DF000694628460294FEF78FFC00220121072045
:101E0000FEF7F8FD0720FEF7E7FD0022012128205C
:101E1000FEF7F0FD2820FEF7DFFD05B030BD000025
:101E20000010024000002110001001400008014095
:101E30001CB5002417480194154900940160611EE7
:101E4000C0E90114FFF77CF908B1FEF7F4F98DF849
:101E500004408DF805408DF80640012201A90D4887
:101E6000FFF744FA08B1FEF7E6F901208DF800000B
:101E70008DF801008DF8020002468DF80340694696
:101E80000448FFF7D1F9002801D0FEF7D4F91CBDB2
:101E9000002800408000002010B592B000240F946C
:101EA0001C2108A81094FEF766F920216846FEF769
:101EB00062F91F481D49C0E900145921C0E90241D7
:101EC000046144618461FFF7C4FC08B1FEF7B3F913
:101ED0000F940FA916481094FFF7BAFA08B1FEF74D
:101EE000AAF96020CDE908040A940B940C940D948F
:101EF000002208A90E480E94FFF748FC08B1FEF72F
:101F00009AF900944FF40050CDE9044002940194F2
:101F10000394694606480794FFF76FFA08B1FEF785
:101F20008AF90348FFF79CFB12B010BD002C01405A
:101F30009400002010B58AB0002407941C21684644
:101F40000894FEF718F915484FF08041C0E90014D5
:101F50005921C0E9024104618461FFF77AFC08B1AC
:101F6000FEF769F9079407A90C480894FFF770FA7F
:101F700008B1FEF760F96020CDE900040294002268
:101F8000694606480494FFF701FC08B1FEF753F9CF
:101F90000248FFF765FB0AB010BD0000DC0000201E
:101FA00010B58EB000240794089409940A940B94F9
:101FB0001C2168460C94FEF7DEF81D481B49C0E959
:101FC00000145921C0E9024104618461FFF77EFADF
:101FD00008B1FEF730F94FF48050079007A9144874
:101FE000FFF7D2FA08B1FEF726F91148FFF731FCE6
:101FF00008B1FEF720F90B940BA90D480C94FFF7DC
:1020000027FA08B1FEF717F96020CDE90004029421
:102010000C22694606480494FFF7B8FB08B1FEF7A6
:102020000AF90348FFF71CFB0EB010BD0004004086
:102030002401002010B58AB0002407941C216846B2
:102040000894FEF798F815481349C0E9001459217F
:10205000C0E9024104618461FFF7FBFB08B1FEF7B0
:10206000EAF8079407A90D480894FFF7F1F908B1B9
:10207000FEF7E1F86020CDE90004029400226946F1
:1020800006480494FFF782FB08B1FEF7D4F8034832
:10209000FFF7E6FA0AB010BD000800406C0100200E
:1020A00010B58AB0002407941C2168460894FEF7F6
:1020B00062F815481349C0E900145921C0E90241EA
:1020C00004618461FFF7C5FB08B1FEF7B4F807941B
:1020D00007A90D480894FFF7BBF908B1FEF7ABF864
:1020E0006020CDE900040294002269460648049469
:1020F000FFF74CFB08B1FEF79EF80348FFF7B0FA74
:102100000AB010BD000C0040B401002010B592B020
:1021100000240F941C2108A81094FEF72CF820210D
:102120006846FEF728F81F481D49C0E900145921E8
:10213000C0E90241046144618461FFF78AFB08B190
:10214000FEF779F80F940FA916481094FFF780F95D
:1021500008B1FEF770F86020CDE908040A940B94EA
:102160000C940D94082208A90E480E94FFF70EFB5C
:1021700008B1FEF760F800944FF40050CDE9044038
:10218000029401940394694606480794FFF735F9D1
:1021900008B1FEF750F80348FFF762FA12B010BD1D
:1021A00000340140FC010020FEE7FEE77047010912
:1021B00001EB810100F00F0000EB4100C0B270475D
:1021C00070B50446FEF7AAFB05464FF47A7606E0A2
:1021D000FEF7A4FB401BB04201D9032070BD20686C
:1021E00040688006F4D52068416841F010014160E4
:1021F000002070BD70B504460068416821F01001F0
:102200004160FEF78BFB05464FF47A7607E000BF8E
:10221000FEF784FB401BB04201D9032070BD20684B
:1022200040688006F4D5002070BD00000148FEF72C
:1022300067BF0000800000200168086A496A89B20F
:1022400041EA00407047006881698AB2C1698BB277
:10225000816989B28A4203D0C06961F31F40704727
:1022600043EA02407047F0B56424C1EBC10309277B
:10227000A500072603EB01130329B3FBF7F100F5D3
:10228000FA60114401440AD2401EB0FBF4F201EBA3
:102290009001B0FBF5F0891A0844001D08E0B0FB7E
:1022A000F4F201EB9001B0FBF5F0891A0844801CB0
:1022B000B0FBF6F106FB1100C0B2F0BD70B50D46E3
:1022C00006460024FFF77CFF48B93168280C0862F5
:1022D0003168A8B248623046FFF78CFF00B1012494
:1022E000204670BD70B50D4606460024FFF768FF16
:1022F00048B93168280C88613168A8B2C861304695
:10230000FFF778FF00B10124204670BD7047FEF74B
:102310000BBB70B596B028216846FDF72CFF142141
:102320000AA8FDF728FF18210FA8FDF724FF0920B0
:10233000012400904FF48030002504940694CDE9E8
:1023400001050226CDE907604FF4E01009906846C8
:10235000FEF744FD08B172B6FEE70F20CDE90A068C
:102360004FF48060CDE90C5002210AA80E95FEF7CB
:1023700059FC08B172B6FEE74FF40070CDE90F408A
:102380000FA8FEF7D9FB002801D072B6FEE716B001
:1023900070BD7047F0B502681C4B1D4D1D4E1E4FA1
:1023A0001E4C4FF0804C984209D0A04207D06045A7
:1023B00005D0A84203D0B04201D0B84204D122F0E7
:1023C000700E4A6842EA0E02984209D0A04207D035
:1023D000604505D0A84203D0B04201D0B84203D135
:1023E00022F44075CA682A434D6922F080022A43CC
:1023F00002608A68C2620A688262984201D0A04282
:1024000001D10969016301214161F0BD002C014046
:102410000004004000080040000C0040003401406F
:1024200010B501F01F030121046A99408C43046236
:10243000016A9A401143016210BD10B5446A01213E
:10244000626A824205D121778069F8B984F83E102A
:102450001CE0A26A824206D1022222778069A8B9D2
:1024600084F83F1012E0E26A824206D10422227709
:10247000806958B984F8401008E0226B824205D187
:1024800008222277806908B984F841102046FFF7B6
:10249000B1FA0020207710BD10B5446A616A81420C
:1024A00001D101200DE0A16A814201D1022008E0A2
:1024B000E16A814201D1042003E0216B814201D114
:1024C000082020772046FFF7CFFA0020207710BDA4
:1024D00010B5446A0121626A824203D1217784F8EF
:1024E0003E1019E0A26A824204D10220207784F8CB
:1024F0003F1011E0E26A824204D10420207784F880
:10250000401009E0226B824204D10820207784F831
:10251000411001E084F83D102046FFF7A0F80020AC
:10252000207710BD10B5846842EA032224F47F446A
:102530000A432243826010BD826822F070020A437F
:1025400042F0070181607047F0B5026A22F0010293
:102550000262036A42688469124E24F073050C68B3
:102560002C4323F002058B682B430D4DA84201D06C
:10257000B04205D123F00807CB683B4323F00403A6
:10258000A84201D0B04205D14D6922F440721543F2
:102590008A692A4342608461496841630362F0BDED
:1025A000002C014000340140F0B5026A22F0100214
:1025B0000262026A436884690D6824F4E64444EACE
:1025C00005248D6822F0200242EA05120F4D104EBC
:1025D000A84201D0B04206D1CF6822F0800242EA80
:1025E000071222F04002A84201D0B04207D14D6943
:1025F00023F4406343EA85038D6943EA850343601E
:102600008461496881630262F0BD0000002C0140D2
:1026100000340140F0B5026A22F480720262026A5C
:102620004368C46922F4007224F073050C68124EEA
:102630002C438D6842EA05220E4DA84201D0B042DB
:1026400006D1CF6822F4006242EA072222F48062B7
:10265000A84201D0B04207D14D6923F4405343EA68
:1026600005138D6943EA05134360C4614968C1637A
:102670000262F0BD002C01400034014030B5026A16
:1026800022F480520262046A4268C3690D6823F42E
:10269000E64343EA05238D6824F4005444EA0534F4
:1026A000084DA84202D0084DA84204D14D6922F439
:1026B000804242EA85124260C36149680164046253
:1026C00030BD0000002C01400034014010B5036A09
:1026D000046A24F001040462846924F0F00444EAEA
:1026E000021423F00A020A438461026210BD10B58D
:1026F000036A23F0100303628369046A23F47043BE
:1027000043EA023224F0A00343EA0111826101622C
:1027100010BD00002DE9F0410A4640F25114214657
:10272000002000F021F94FF400022146002000F0C3
:10273000F3F8094D002405F11C0642F29957295D72
:1027400056F824003B46054AFFF790F9641C052C17
:10275000F5DBBDE8F08100003C000020200A0020ED
:102760002DE9F047074689460A4640F251142146B2
:10277000002000F0F9F84FF400022146002000F09C
:10278000CBF8164D002405F11C0642F29958295D3C
:1027900056F824004346124AFFF768F9641C042CDB
:1027A000F5DB104902200D4C81F83C00083CF8B2E2
:1027B0002279494600F004FB606802280CD0401CD6
:1027C00060604846FFF781FA697943467069BDE861
:1027D000F047034AFFF74AB90020F1E73C00002028
:1027E000200A002084A00020FEE700002DE9F0412F
:1027F000DFF8948010214046FEF78AF8234E012529
:10280000234FA6F11404012806D135603878012839
:1028100002D12068401C206020214046FEF778F855
:10282000012807D1F56097F82400012802D1E0685B
:10283000401CE06040214046FEF76AF8012806D1BE
:102840007560387B012802D16068401C606080217F
:102850004046FEF75DF8012806D1B560387E0128B4
:1028600002D1A068401CA06010210A48FEF750F871
:10287000012807D1356197F83000012802D120697D
:10288000401C2061BDE8F08100080140FCA0002050
:1028900084A00020001001400907090E002804DB75
:1028A00000F1E02080F80014704700F00F0000F104
:1028B000E02080F8141D704702E008C8121F08C10C
:1028C000002AFAD170477047002001E001C1121FB1
:1028D000002AFBD170470000064810B50021816432
:1028E00080F8541000F0ACF900F0F6FABDE81040A2
:1028F00000F0C0B984A0002010B5002240F291146D
:102900002146104600F030F82146BDE810404FF453
:1029100000220020AFF300802DE9F043114C2D2759
:10292000A4F24469192619E059F820C0002300EBED
:10293000400500BF22FA03F81CEA080F03EBC508A4
:1029400004EB880802D0C8F8047001E0C8F80460FD
:102950005B1C9BB2182BEDD3401C80B28842E3D3A2
:10296000BDE8F083200A0020044B03E043F8202058
:10297000401C80B28842F9D370470000DC0300207D
:102980002DE9F74F724C734E934694F854004FF470
:10299000000A06F11C0942F29958022805D00328C2
:1029A00002D0062804D032E0042084F83C002EE057
:1029B00040F2511529460020019AFFF7D5FF5246F3
:1029C00029460020FFF7A8FF00254F46715D57F804
:1029D00025004346604AFFF749F86D1CEDB2052D0E
:1029E000F4D34FF47A70FDF75BFE00F043F9FFF784
:1029F00083FFFFF771FF00254346715D57F82500FF
:102A0000554AFFF733F86D1CEDB2052DF4D3514A4A
:102A10000020083A514B116853F82050002D01DD79
:102A2000012500E00025401CC0B229440528F3D34D
:102A3000484808380129016007DB00F01BF9FFF75F
:102A40005BFFFFF749FF00F08BF8D4E91201421A4F
:102A500040F213310BFB01F00021B2EB400F94F870
:102A6000610001D808B914E008B184F8611084F855
:102A7000541094F8570084F86000483400F0FAF8D5
:102A8000FFF73AFF00F0DCF800F026FA606844F83F
:102A900048095746002540F2911BB24600225E4687
:102AA00059461046FFF760FF3A4631460020FFF7CF
:102AB00033FF05EB450014F8200020B1012805D0B4
:102AC000022820D10CE0FFF717FF1CE0019800F06E
:102AD00086F9019800F0A1F9019800F061F912E07F
:102AE0001C4808380279DDE9000100F069F919484D
:102AF00008384068022809D0401C16490839486047
:102B00000198FFF7E2F8052D02D00BE00020F4E772
:102B100031460020019AFFF727FF3A463146002050
:102B2000FFF7FAFE1AF8051059F8250043460A4A3D
:102B3000FEF79CFFFFF75AFE1E20FDF7B1FDFFF7E1
:102B400055FE6D1CEDB2062DA8D3BDE8FE8F00002A
:102B500084A000203C000020200A0020E8A00020E3
:102B60000020064A014600BF42F82010401CC0B2B7
:102B70000428F9D90248016070470000E8A000204D
:102B8000340000202DE9F04F2B4CC0EBC00000EBCF
:102B9000040B2A4C0023C1EBC10500BF1BF803A0A6
:102BA00001203EE003281DD20021A0F1020CC0EB61
:102BB000C009CAEBCA0812E009EB01062E444644DC
:102BC000ED2E00D9EE3EB6B24F4206EB4707BF1DD1
:102BD000BFB244F82620491C44F82720C9B26145F9
:102BE0001FDCE9E74100091FCFB20021C0EBC0099B
:102BF000CAEBCA0CC7F1070811E000BF09EB0106D8
:102C000006EB57062E446644ED2E00D9EE3E03280F
:102C100001D1022901D044F82620491CC9B28845B7
:102C2000ECDC401CC0B20628BCD35B1CDBB2072B1B
:102C3000B4D3BDE8F08F000042000020DC03002088
:102C40001CB509A16A46D1E90001CDE90001084996
:102C5000002000EB4004135C401CC0B201F824309B
:102C60000528F6D91CBD000000000000000100008E
:102C700084A000200020144900E006D000EB4003AF
:102C800001EB8303421C9A7228B100EB400301EB75
:102C90008303421E5A72401C40B20428EDDD4FF0FF
:102CA000040048724FF0000281F83A204FEA020017
:102CB00000EB400300F10100C0B201F82320052819
:102CC000F6D3886CC864704784A0002070B50026D5
:102CD000314C304600EB400114F82110012931D06D
:102CE00002292FD00021401C3144C0B2CEB20528A9
:102CF000F0D384F85460002084F85600FDF70EFEEF
:102D00000125A0648EB1FFF771FD94F857002349A7
:102D100051F8201000293DD000EB4000761C04F84B
:102D2000205084F8546000F0D7F894F85400062836
:102D300030D0A16C0522B1FBF2F302FB131100208D
:102D4000491C06E00121CEE700EB400004EB8000C7
:102D5000807A491EC9B2F7D200EB400204EB82012F
:102D60004E7A8B7A06EB460604EB8606B3724B7AF4
:102D7000897A01EB410104EB81014B7294F8581000
:102D800009B984F8585084F85700022004F822004A
:102D9000A06CE06470BD000084A00020FCA00020B6
:102DA00010B5024640F251142146AF20FFF7DCFD7A
:102DB0002146BDE810404FF40002AF20FFF7ACBD44
:102DC00013460A4610B501461846FFF7DBFEAF2151
:102DD000BDE810404FF400020020FFF79DBD70B524
:102DE00004460246AF210020FFF7BEFD224640F216
:102DF000911440F2511521462846FFF7B5FD4FF4D6
:102E000000263246AF210020FFF786FD32462146DC
:102E10002846BDE87040FFF77FBD70B5024640F21E
:102E2000911440F2511521462846FFF79DFD214699
:102E30002846BDE870404FF40002FFF76DBD00006A
:102E4000FDF77AFDFFF765FAFEF796FFFEF74EFFF6
:102E5000FFF722F8FFF76EF8FFF7A2F8FFF7EAF89E
:102E6000FFF71EF9FFF752F9FEF7E2FFFFF734FD17
:102E7000184C207830B1012807D0022812D003283E
:102E800013D004E04FF47F4000E0FF202061E068B1
:102E900068B1012818D00228EBD121696068FFF7DA
:102EA0005FFCE6E74FF4BE40F0E75F20EEE7FFF798
:102EB0009DFC2079FFF70AFF2079A2682169FFF7BE
:102EC0005FFDFFF793FCD4E721696068FFF722FC00
:102ED000CFE700000000002000200549024600BFA7
:102EE00041F82020401CC0B20428F9D970470000E6
:102EF000FCA000200000000000000000010203040C
:102F00000607080900000000010203042C2F000836
:102F10000000002080000000B8280008AC2F000846
:102F20008000002090A50000C828000800000000D4
:102F3000010000000200000000000000FF0000008F
:102F40000000000C000800006C010020940000202C
:102F5000DC00002024010020B4010020FC0100203E
:102F600000000000000000000000000C0008000548
:102F70000A0F14191E02070C11161B2004090E1348
:102F8000181D22006C010020DC000020B40100208C
:102F90002401002094000020FC010020010000001A
:0C2FA00010000000000000000024F400FD
:0400000508000131BD
:00000001FF
